{
  "contractName": "Animal",
  "abi": [
    {
      "inputs": [
        {
          "internalType": "string",
          "name": "food",
          "type": "string"
        }
      ],
      "name": "eat",
      "outputs": [
        {
          "internalType": "string",
          "name": "",
          "type": "string"
        }
      ],
      "stateMutability": "view",
      "type": "function"
    },
    {
      "inputs": [],
      "name": "sleep",
      "outputs": [
        {
          "internalType": "string",
          "name": "",
          "type": "string"
        }
      ],
      "stateMutability": "view",
      "type": "function"
    },
    {
      "inputs": [],
      "name": "speak",
      "outputs": [
        {
          "internalType": "string",
          "name": "",
          "type": "string"
        }
      ],
      "stateMutability": "view",
      "type": "function"
    }
  ],
  "bytecode": "0x608060405234801561001057600080fd5b5061048d806100206000396000f3fe608060405234801561001057600080fd5b50600436106100415760003560e01c8063133a473e1461004657806350d8531514610064578063728d9b7414610082575b600080fd5b61004e6100b2565b60405161005b9190610204565b60405180910390f35b61006c6100ef565b6040516100799190610204565b60405180910390f35b61009c6004803603810190610097919061036f565b61012c565b6040516100a99190610204565b60405180910390f35b60606040518060400160405280600881526020017f5a2d7a2d7a2e2e2e000000000000000000000000000000000000000000000000815250905090565b60606040518060400160405280600381526020017f2e2e2e0000000000000000000000000000000000000000000000000000000000815250905090565b60608160405160200161013f919061041a565b60405160208183030381529060405260405160200161015e9190610440565b6040516020818303038152906040529050919050565b600081519050919050565b600082825260208201905092915050565b60005b838110156101ae578082015181840152602081019050610193565b60008484015250505050565b6000601f19601f8301169050919050565b60006101d682610174565b6101e0818561017f565b93506101f0818560208601610190565b6101f9816101ba565b840191505092915050565b6000602082019050818103600083015261021e81846101cb565b905092915050565b6000604051905090565b600080fd5b600080fd5b600080fd5b600080fd5b7f4e487b7100000000000000000000000000000000000000000000000000000000600052604160045260246000fd5b61027c826101ba565b810181811067ffffffffffffffff8211171561029b5761029a610244565b5b80604052505050565b60006102ae610226565b90506102ba8282610273565b919050565b600067ffffffffffffffff8211156102da576102d9610244565b5b6102e3826101ba565b9050602081019050919050565b82818337600083830152505050565b600061031261030d846102bf565b6102a4565b90508281526020810184848401111561032e5761032d61023f565b5b6103398482856102f0565b509392505050565b600082601f8301126103565761035561023a565b5b81356103668482602086016102ff565b91505092915050565b60006020828403121561038557610384610230565b5b600082013567ffffffffffffffff8111156103a3576103a2610235565b5b6103af84828501610341565b91505092915050565b7f416e696d616c2065617473200000000000000000000000000000000000000000815250565b600081905092915050565b60006103f482610174565b6103fe81856103de565b935061040e818560208601610190565b80840191505092915050565b6000610425826103b8565b600c8201915061043582846103e9565b915081905092915050565b600061044c82846103e9565b91508190509291505056fea264697066735822122012c02e7672262e095da24fd1ecef3ff9cc0ee6b59f0cf3456114a4bc7a0a2dbb64736f6c63430008110033",
  "immutableReferences": {},
  "source": "// SPDX-License-Identifier: MIT\n\npragma solidity 0.8.17;\n\n\ninterface Living{\n    function eat(string memory food) external returns(string memory);\n}\n\ncontract HasName{\n    string internal _name;\n    constructor(string memory name){\n        _name=name;\n    }\n\n    function getName() view public returns(string memory){\n        return _name;\n    }\n}\n\ncontract Animal is Living{\n    \n    function eat(string memory food) view virtual public returns(string memory){\n        return string.concat(string.concat(\"Animal eats \",food));\n    }\n\n    function sleep() view public returns(string memory){\n        return \"Z-z-z...\";\n    }\n\n    function speak() view virtual public returns(string memory){\n        return \"...\";\n    }\n}\n\nlibrary StringComparer{\n    function compare(string memory str1, string memory str2) public pure returns (bool) {\n        return keccak256(abi.encodePacked(str1)) == keccak256(abi.encodePacked(str2));\n    }\n}\n\nabstract contract Herbivore is Animal, HasName{\n    string constant PLANT = \"plant\";\n\n    modifier eatOnlyPlant(string memory food){\n        require(StringComparer.compare(food,PLANT),\"Can only eat plant food\");\n        _;\n    }\n\n   function eat(string memory food) view virtual override public eatOnlyPlant(food) returns(string memory){\n        return super.eat(food);\n    }\n}\n\ncontract Cow is Herbivore{\n\n    constructor(string memory name) HasName(name){\n    }\n\n    function speak() view override public returns(string memory){\n        return \"Mooo\";\n    }\n}\n\ncontract Horse is Herbivore{\n\n    constructor(string memory name) HasName(name){\n    }\n\n    function speak() view override public returns(string memory){\n        return \"Igogo\";\n    }\n\n}\n\ncontract Wolf is Animal{\n    function speak() view virtual override public returns(string memory){\n        return \"Awoo\";\n    }\n\n    string constant MEAT = \"meat\";\n    string constant PLANT = \"plant\";\n    // string constant CHOCOLATE = \"chocolate\";\n\n    modifier eatOnlyMeat(string memory food){\n        require(StringComparer.compare(food,MEAT),\"Can only eat meat food\");\n        _;\n    }\n   function eat(string memory food) view virtual override public eatOnlyMeat(food) returns(string memory){\n        return super.eat(food);\n    }\n}\ncontract Omnivore is Animal{\n    function speak() view virtual override public returns(string memory){\n        return \"Awoo\";\n    }\n\n    string constant MEAT = \"meat\";\n    string constant PLANT = \"plant\";\n\n    modifier eatOmnivore(string memory food){\n        require(StringComparer.compare(food,MEAT) || StringComparer.compare(food,PLANT),\"Can only eat meat food\");\n        _;\n    }\n   function eat(string memory food) view virtual override public eatOmnivore(food) returns(string memory){\n        return super.eat(food);\n    }\n}\n\ncontract Dog is Omnivore, HasName{\n    constructor(string memory name) HasName(name){\n    }\n    \n    function speak() view virtual override public returns(string memory){\n        return \"Woof\";\n    }\n    function eat(string memory food) view virtual override public returns(string memory){\n        require(!StringComparer.compare(food,\"chocolate\"),\"chocolate is danger for dogs\");\n        return super.eat(food);\n    }\n}\n\ncontract Farmer{\n    function feed(address animal, string memory food) view public returns(string memory){\n        return Animal(animal).eat(food);\n    }\n\n    function call(address animal) view public returns(string memory){\n        return Animal(animal).speak();\n    }\n}\n",
  "sourcePath": "/Users/yaroslaviatnytskyi/Documents/blockchain/hw14/contracts/hw-09.sol",
  "compiler": {
    "name": "solc",
    "version": "0.8.17+commit.8df45f5f.Emscripten.clang"
  },
  "schemaVersion": "3.4.11",
  "updatedAt": "2023-02-17T17:29:56.640Z",
  "devdoc": {
    "kind": "dev",
    "methods": {},
    "version": 1
  },
  "userdoc": {
    "kind": "user",
    "methods": {},
    "version": 1
  }
}