{
  "contractName": "Dog",
  "abi": [
    {
      "inputs": [
        {
          "internalType": "string",
          "name": "name",
          "type": "string"
        }
      ],
      "stateMutability": "nonpayable",
      "type": "constructor"
    },
    {
      "inputs": [],
      "name": "getName",
      "outputs": [
        {
          "internalType": "string",
          "name": "",
          "type": "string"
        }
      ],
      "stateMutability": "view",
      "type": "function"
    },
    {
      "inputs": [],
      "name": "sleep",
      "outputs": [
        {
          "internalType": "string",
          "name": "",
          "type": "string"
        }
      ],
      "stateMutability": "view",
      "type": "function"
    },
    {
      "inputs": [],
      "name": "speak",
      "outputs": [
        {
          "internalType": "string",
          "name": "",
          "type": "string"
        }
      ],
      "stateMutability": "view",
      "type": "function"
    },
    {
      "inputs": [
        {
          "internalType": "string",
          "name": "food",
          "type": "string"
        }
      ],
      "name": "eat",
      "outputs": [
        {
          "internalType": "string",
          "name": "",
          "type": "string"
        }
      ],
      "stateMutability": "view",
      "type": "function"
    }
  ],
  "bytecode": "0x60806040523480156200001157600080fd5b5060405162000fe138038062000fe18339818101604052810190620000379190620001e5565b80806000908162000049919062000481565b50505062000568565b6000604051905090565b600080fd5b600080fd5b600080fd5b600080fd5b6000601f19601f8301169050919050565b7f4e487b7100000000000000000000000000000000000000000000000000000000600052604160045260246000fd5b620000bb8262000070565b810181811067ffffffffffffffff82111715620000dd57620000dc62000081565b5b80604052505050565b6000620000f262000052565b9050620001008282620000b0565b919050565b600067ffffffffffffffff82111562000123576200012262000081565b5b6200012e8262000070565b9050602081019050919050565b60005b838110156200015b5780820151818401526020810190506200013e565b60008484015250505050565b60006200017e620001788462000105565b620000e6565b9050828152602081018484840111156200019d576200019c6200006b565b5b620001aa8482856200013b565b509392505050565b600082601f830112620001ca57620001c962000066565b5b8151620001dc84826020860162000167565b91505092915050565b600060208284031215620001fe57620001fd6200005c565b5b600082015167ffffffffffffffff8111156200021f576200021e62000061565b5b6200022d84828501620001b2565b91505092915050565b600081519050919050565b7f4e487b7100000000000000000000000000000000000000000000000000000000600052602260045260246000fd5b600060028204905060018216806200028957607f821691505b6020821081036200029f576200029e62000241565b5b50919050565b60008190508160005260206000209050919050565b60006020601f8301049050919050565b600082821b905092915050565b600060088302620003097fffffffffffffffffffffffffffffffffffffffffffffffffffffffffffffffff82620002ca565b620003158683620002ca565b95508019841693508086168417925050509392505050565b6000819050919050565b6000819050919050565b6000620003626200035c62000356846200032d565b62000337565b6200032d565b9050919050565b6000819050919050565b6200037e8362000341565b620003966200038d8262000369565b848454620002d7565b825550505050565b600090565b620003ad6200039e565b620003ba81848462000373565b505050565b5b81811015620003e257620003d6600082620003a3565b600181019050620003c0565b5050565b601f8211156200043157620003fb81620002a5565b6200040684620002ba565b8101602085101562000416578190505b6200042e6200042585620002ba565b830182620003bf565b50505b505050565b600082821c905092915050565b6000620004566000198460080262000436565b1980831691505092915050565b600062000471838362000443565b9150826002028217905092915050565b6200048c8262000236565b67ffffffffffffffff811115620004a857620004a762000081565b5b620004b4825462000270565b620004c1828285620003e6565b600060209050601f831160018114620004f95760008415620004e4578287015190505b620004f0858262000463565b86555062000560565b601f1984166200050986620002a5565b60005b8281101562000533578489015182556001820191506020850194506020810190506200050c565b868310156200055357848901516200054f601f89168262000443565b8355505b6001600288020188555050505b505050505050565b610a6980620005786000396000f3fe608060405234801561001057600080fd5b506004361061004c5760003560e01c8063133a473e1461005157806317d7de7c1461006f57806350d853151461008d578063728d9b74146100ab575b600080fd5b6100596100db565b6040516100669190610541565b60405180910390f35b610077610118565b6040516100849190610541565b60405180910390f35b6100956101aa565b6040516100a29190610541565b60405180910390f35b6100c560048036038101906100c091906106ac565b6101e7565b6040516100d29190610541565b60405180910390f35b60606040518060400160405280600881526020017f5a2d7a2d7a2e2e2e000000000000000000000000000000000000000000000000815250905090565b60606000805461012790610724565b80601f016020809104026020016040519081016040528092919081815260200182805461015390610724565b80156101a05780601f10610175576101008083540402835291602001916101a0565b820191906000526020600020905b81548152906001019060200180831161018357829003601f168201915b5050505050905090565b60606040518060400160405280600481526020017f576f6f6600000000000000000000000000000000000000000000000000000000815250905090565b606073__StringComparer________________________633a96fdd7836040518263ffffffff1660e01b815260040161022091906107eb565b602060405180830381865af415801561023d573d6000803e3d6000fd5b505050506040513d601f19601f820116820180604052508101906102619190610858565b156102a1576040517f08c379a0000000000000000000000000000000000000000000000000000000008152600401610298906108d1565b60405180910390fd5b6102aa826102b1565b9050919050565b60608173__StringComparer________________________633a96fdd7826040518060400160405280600481526020017f6d656174000000000000000000000000000000000000000000000000000000008152506040518363ffffffff1660e01b81526004016103229291906108f1565b602060405180830381865af415801561033f573d6000803e3d6000fd5b505050506040513d601f19601f820116820180604052508101906103639190610858565b80610419575073__StringComparer________________________633a96fdd7826040518060400160405280600581526020017f706c616e740000000000000000000000000000000000000000000000000000008152506040518363ffffffff1660e01b81526004016103d79291906108f1565b602060405180830381865af41580156103f4573d6000803e3d6000fd5b505050506040513d601f19601f820116820180604052508101906104189190610858565b5b610458576040517f08c379a000000000000000000000000000000000000000000000000000000000815260040161044f90610974565b60405180910390fd5b61046183610469565b915050919050565b60608160405160200161047c91906109f6565b60405160208183030381529060405260405160200161049b9190610a1c565b6040516020818303038152906040529050919050565b600081519050919050565b600082825260208201905092915050565b60005b838110156104eb5780820151818401526020810190506104d0565b60008484015250505050565b6000601f19601f8301169050919050565b6000610513826104b1565b61051d81856104bc565b935061052d8185602086016104cd565b610536816104f7565b840191505092915050565b6000602082019050818103600083015261055b8184610508565b905092915050565b6000604051905090565b600080fd5b600080fd5b600080fd5b600080fd5b7f4e487b7100000000000000000000000000000000000000000000000000000000600052604160045260246000fd5b6105b9826104f7565b810181811067ffffffffffffffff821117156105d8576105d7610581565b5b80604052505050565b60006105eb610563565b90506105f782826105b0565b919050565b600067ffffffffffffffff82111561061757610616610581565b5b610620826104f7565b9050602081019050919050565b82818337600083830152505050565b600061064f61064a846105fc565b6105e1565b90508281526020810184848401111561066b5761066a61057c565b5b61067684828561062d565b509392505050565b600082601f83011261069357610692610577565b5b81356106a384826020860161063c565b91505092915050565b6000602082840312156106c2576106c161056d565b5b600082013567ffffffffffffffff8111156106e0576106df610572565b5b6106ec8482850161067e565b91505092915050565b7f4e487b7100000000000000000000000000000000000000000000000000000000600052602260045260246000fd5b6000600282049050600182168061073c57607f821691505b60208210810361074f5761074e6106f5565b5b50919050565b600082825260208201905092915050565b6000610771826104b1565b61077b8185610755565b935061078b8185602086016104cd565b610794816104f7565b840191505092915050565b7f63686f636f6c6174650000000000000000000000000000000000000000000000600082015250565b60006107d5600983610755565b91506107e08261079f565b602082019050919050565b600060408201905081810360008301526108058184610766565b90508181036020830152610818816107c8565b905092915050565b60008115159050919050565b61083581610820565b811461084057600080fd5b50565b6000815190506108528161082c565b92915050565b60006020828403121561086e5761086d61056d565b5b600061087c84828501610843565b91505092915050565b7f63686f636f6c6174652069732064616e67657220666f7220646f677300000000600082015250565b60006108bb601c836104bc565b91506108c682610885565b602082019050919050565b600060208201905081810360008301526108ea816108ae565b9050919050565b6000604082019050818103600083015261090b8185610766565b9050818103602083015261091f8184610766565b90509392505050565b7f43616e206f6e6c7920656174206d65617420666f6f6400000000000000000000600082015250565b600061095e6016836104bc565b915061096982610928565b602082019050919050565b6000602082019050818103600083015261098d81610951565b9050919050565b7f416e696d616c2065617473200000000000000000000000000000000000000000815250565b600081905092915050565b60006109d0826104b1565b6109da81856109ba565b93506109ea8185602086016104cd565b80840191505092915050565b6000610a0182610994565b600c82019150610a1182846109c5565b915081905092915050565b6000610a2882846109c5565b91508190509291505056fea2646970667358221220126f998a1a1c4abf45a34e83a8c4532ff9fbba337ce9450a27e87b368feef38364736f6c63430008110033",
  "immutableReferences": {},
  "source": "// SPDX-License-Identifier: MIT\n\npragma solidity 0.8.17;\n\n\ninterface Living{\n    function eat(string memory food) external returns(string memory);\n}\n\ncontract HasName{\n    string internal _name;\n    constructor(string memory name){\n        _name=name;\n    }\n\n    function getName() view public returns(string memory){\n        return _name;\n    }\n}\n\ncontract Animal is Living{\n    \n    function eat(string memory food) view virtual public returns(string memory){\n        return string.concat(string.concat(\"Animal eats \",food));\n    }\n\n    function sleep() view public returns(string memory){\n        return \"Z-z-z...\";\n    }\n\n    function speak() view virtual public returns(string memory){\n        return \"...\";\n    }\n}\n\nlibrary StringComparer{\n    function compare(string memory str1, string memory str2) public pure returns (bool) {\n        return keccak256(abi.encodePacked(str1)) == keccak256(abi.encodePacked(str2));\n    }\n}\n\nabstract contract Herbivore is Animal, HasName{\n    string constant PLANT = \"plant\";\n\n    modifier eatOnlyPlant(string memory food){\n        require(StringComparer.compare(food,PLANT),\"Can only eat plant food\");\n        _;\n    }\n\n   function eat(string memory food) view virtual override public eatOnlyPlant(food) returns(string memory){\n        return super.eat(food);\n    }\n}\n\ncontract Cow is Herbivore{\n\n    constructor(string memory name) HasName(name){\n    }\n\n    function speak() view override public returns(string memory){\n        return \"Mooo\";\n    }\n}\n\ncontract Horse is Herbivore{\n\n    constructor(string memory name) HasName(name){\n    }\n\n    function speak() view override public returns(string memory){\n        return \"Igogo\";\n    }\n\n}\n\ncontract Wolf is Animal{\n    function speak() view virtual override public returns(string memory){\n        return \"Awoo\";\n    }\n\n    string constant MEAT = \"meat\";\n    string constant PLANT = \"plant\";\n    // string constant CHOCOLATE = \"chocolate\";\n\n    modifier eatOnlyMeat(string memory food){\n        require(StringComparer.compare(food,MEAT),\"Can only eat meat food\");\n        _;\n    }\n   function eat(string memory food) view virtual override public eatOnlyMeat(food) returns(string memory){\n        return super.eat(food);\n    }\n}\ncontract Omnivore is Animal{\n    function speak() view virtual override public returns(string memory){\n        return \"Awoo\";\n    }\n\n    string constant MEAT = \"meat\";\n    string constant PLANT = \"plant\";\n\n    modifier eatOmnivore(string memory food){\n        require(StringComparer.compare(food,MEAT) || StringComparer.compare(food,PLANT),\"Can only eat meat food\");\n        _;\n    }\n   function eat(string memory food) view virtual override public eatOmnivore(food) returns(string memory){\n        return super.eat(food);\n    }\n}\n\ncontract Dog is Omnivore, HasName{\n    constructor(string memory name) HasName(name){\n    }\n    \n    function speak() view virtual override public returns(string memory){\n        return \"Woof\";\n    }\n    function eat(string memory food) view virtual override public returns(string memory){\n        require(!StringComparer.compare(food,\"chocolate\"),\"chocolate is danger for dogs\");\n        return super.eat(food);\n    }\n}\n\ncontract Farmer{\n    function feed(address animal, string memory food) view public returns(string memory){\n        return Animal(animal).eat(food);\n    }\n\n    function call(address animal) view public returns(string memory){\n        return Animal(animal).speak();\n    }\n}\n",
  "sourcePath": "/Users/yaroslaviatnytskyi/Documents/blockchain/hw14/contracts/hw-09.sol",
  "compiler": {
    "name": "solc",
    "version": "0.8.17+commit.8df45f5f.Emscripten.clang"
  },
  "schemaVersion": "3.4.11",
  "updatedAt": "2023-02-17T17:29:56.655Z",
  "devdoc": {
    "kind": "dev",
    "methods": {},
    "version": 1
  },
  "userdoc": {
    "kind": "user",
    "methods": {},
    "version": 1
  }
}