{
  "contractName": "Wolf",
  "abi": [
    {
      "inputs": [],
      "name": "sleep",
      "outputs": [
        {
          "internalType": "string",
          "name": "",
          "type": "string"
        }
      ],
      "stateMutability": "view",
      "type": "function",
      "constant": true
    },
    {
      "inputs": [],
      "name": "speak",
      "outputs": [
        {
          "internalType": "string",
          "name": "",
          "type": "string"
        }
      ],
      "stateMutability": "view",
      "type": "function",
      "constant": true
    },
    {
      "inputs": [
        {
          "internalType": "string",
          "name": "food",
          "type": "string"
        }
      ],
      "name": "eat",
      "outputs": [
        {
          "internalType": "string",
          "name": "",
          "type": "string"
        }
      ],
      "stateMutability": "view",
      "type": "function",
      "constant": true
    }
  ],
  "bytecode": "0x608060405234801561001057600080fd5b506106e1806100206000396000f3fe608060405234801561001057600080fd5b50600436106100415760003560e01c8063133a473e1461004657806350d8531514610064578063728d9b7414610082575b600080fd5b61004e6100b2565b60405161005b9190610306565b60405180910390f35b61006c6100ef565b6040516100799190610306565b60405180910390f35b61009c60048036038101906100979190610471565b61012c565b6040516100a99190610306565b60405180910390f35b60606040518060400160405280600881526020017f5a2d7a2d7a2e2e2e000000000000000000000000000000000000000000000000815250905090565b60606040518060400160405280600481526020017f41776f6f00000000000000000000000000000000000000000000000000000000815250905090565b60608173__StringComparer________________________633a96fdd7826040518060400160405280600481526020017f6d656174000000000000000000000000000000000000000000000000000000008152506040518363ffffffff1660e01b815260040161019d929190610504565b602060405180830381865af41580156101ba573d6000803e3d6000fd5b505050506040513d601f19601f820116820180604052508101906101de9190610573565b61021d576040517f08c379a0000000000000000000000000000000000000000000000000000000008152600401610214906105ec565b60405180910390fd5b6102268361022e565b915050919050565b606081604051602001610241919061066e565b6040516020818303038152906040526040516020016102609190610694565b6040516020818303038152906040529050919050565b600081519050919050565b600082825260208201905092915050565b60005b838110156102b0578082015181840152602081019050610295565b60008484015250505050565b6000601f19601f8301169050919050565b60006102d882610276565b6102e28185610281565b93506102f2818560208601610292565b6102fb816102bc565b840191505092915050565b6000602082019050818103600083015261032081846102cd565b905092915050565b6000604051905090565b600080fd5b600080fd5b600080fd5b600080fd5b7f4e487b7100000000000000000000000000000000000000000000000000000000600052604160045260246000fd5b61037e826102bc565b810181811067ffffffffffffffff8211171561039d5761039c610346565b5b80604052505050565b60006103b0610328565b90506103bc8282610375565b919050565b600067ffffffffffffffff8211156103dc576103db610346565b5b6103e5826102bc565b9050602081019050919050565b82818337600083830152505050565b600061041461040f846103c1565b6103a6565b9050828152602081018484840111156104305761042f610341565b5b61043b8482856103f2565b509392505050565b600082601f8301126104585761045761033c565b5b8135610468848260208601610401565b91505092915050565b60006020828403121561048757610486610332565b5b600082013567ffffffffffffffff8111156104a5576104a4610337565b5b6104b184828501610443565b91505092915050565b600082825260208201905092915050565b60006104d682610276565b6104e081856104ba565b93506104f0818560208601610292565b6104f9816102bc565b840191505092915050565b6000604082019050818103600083015261051e81856104cb565b9050818103602083015261053281846104cb565b90509392505050565b60008115159050919050565b6105508161053b565b811461055b57600080fd5b50565b60008151905061056d81610547565b92915050565b60006020828403121561058957610588610332565b5b60006105978482850161055e565b91505092915050565b7f43616e206f6e6c7920656174206d65617420666f6f6400000000000000000000600082015250565b60006105d6601683610281565b91506105e1826105a0565b602082019050919050565b60006020820190508181036000830152610605816105c9565b9050919050565b7f416e696d616c2065617473200000000000000000000000000000000000000000815250565b600081905092915050565b600061064882610276565b6106528185610632565b9350610662818560208601610292565b80840191505092915050565b60006106798261060c565b600c82019150610689828461063d565b915081905092915050565b60006106a0828461063d565b91508190509291505056fea26469706673582212204bfdbb5e80c99683596c3baeb7fc9a6b8d046e29795a236d6382487fe372a9e164736f6c63430008110033",
  "immutableReferences": {},
  "source": "pragma solidity 0.8.17;\n\ninterface Living{\n    function eat(string memory food) external returns(string memory);\n}\n\ncontract HasName{\n    string internal _name;\n    constructor(string memory name){\n        _name=name;\n    }\n\n    function getName() view public returns(string memory){\n        return _name;\n    }\n}\n\ncontract Animal is Living{\n    \n    function eat(string memory food) view virtual public returns(string memory){\n        return string.concat(string.concat(\"Animal eats \",food));\n    }\n\n    function sleep() view public returns(string memory){\n        return \"Z-z-z...\";\n    }\n\n    function speak() view virtual public returns(string memory){\n        return \"...\";\n    }\n}\n\nlibrary StringComparer{\n    function compare(string memory str1, string memory str2) public pure returns (bool) {\n        return keccak256(abi.encodePacked(str1)) == keccak256(abi.encodePacked(str2));\n    }\n}\n\nabstract contract Herbivore is Animal, HasName{\n    string constant PLANT = \"plant\";\n\n    modifier eatOnlyPlant(string memory food){\n        require(StringComparer.compare(food,PLANT),\"Can only eat plant food\");\n        _;\n    }\n\n   function eat(string memory food) view virtual override public eatOnlyPlant(food) returns(string memory){\n        return super.eat(food);\n    }\n}\n\ncontract Cow is Herbivore{\n\n    constructor(string memory name) HasName(name){\n    }\n\n    function speak() view override public returns(string memory){\n        return \"Mooo\";\n    }\n}\n\ncontract Horse is Herbivore{\n\n    constructor(string memory name) HasName(name){\n    }\n\n    function speak() view override public returns(string memory){\n        return \"Igogo\";\n    }\n\n}\n\ncontract Wolf is Animal{\n    function speak() view virtual override public returns(string memory){\n        return \"Awoo\";\n    }\n\n    string constant MEAT = \"meat\";\n    string constant PLANT = \"plant\";\n    // string constant CHOCOLATE = \"chocolate\";\n\n    modifier eatOnlyMeat(string memory food){\n        require(StringComparer.compare(food,MEAT),\"Can only eat meat food\");\n        _;\n    }\n   function eat(string memory food) view virtual override public eatOnlyMeat(food) returns(string memory){\n        return super.eat(food);\n    }\n}\ncontract Omnivore is Animal{\n    function speak() view virtual override public returns(string memory){\n        return \"Awoo\";\n    }\n\n    string constant MEAT = \"meat\";\n    string constant PLANT = \"plant\";\n\n    modifier eatOmnivore(string memory food){\n        require(StringComparer.compare(food,MEAT) || StringComparer.compare(food,PLANT),\"Can only eat meat food\");\n        _;\n    }\n   function eat(string memory food) view virtual override public eatOmnivore(food) returns(string memory){\n        return super.eat(food);\n    }\n}\n\ncontract Dog is Omnivore, HasName{\n    constructor(string memory name) HasName(name){\n    }\n    \n    function speak() view virtual override public returns(string memory){\n        return \"Woof\";\n    }\n    function eat(string memory food) view virtual override public returns(string memory){\n        require(!StringComparer.compare(food,\"chocolate\"),\"chocolate is danger for dogs\");\n        return super.eat(food);\n    }\n}\n\ncontract Farmer{\n    function feed(address animal, string memory food) view public returns(string memory){\n        return Animal(animal).eat(food);\n    }\n\n    function call(address animal) view public returns(string memory){\n        return Animal(animal).speak();\n    }\n}\n",
  "sourcePath": "/Users/yaroslaviatnytskyi/Documents/blockchain/hw14/contracts/hw-09.sol",
  "compiler": {
    "name": "solc",
    "version": "0.8.17+commit.8df45f5f.Emscripten.clang"
  },
  "schemaVersion": "3.4.11",
  "updatedAt": "2023-02-17T17:31:26.551Z",
  "networkType": "ethereum",
  "devdoc": {
    "kind": "dev",
    "methods": {},
    "version": 1
  },
  "userdoc": {
    "kind": "user",
    "methods": {},
    "version": 1
  }
}